{
  "contractName": "ERC20",
  "abi": [
    {
      "inputs": [
        {
          "internalType": "string",
          "name": "getName",
          "type": "string"
        },
        {
          "internalType": "string",
          "name": "getSymbol",
          "type": "string"
        }
      ],
      "stateMutability": "nonpayable",
      "type": "constructor"
    },
    {
      "anonymous": false,
      "inputs": [
        {
          "indexed": true,
          "internalType": "address",
          "name": "owner",
          "type": "address"
        },
        {
          "indexed": true,
          "internalType": "address",
          "name": "spender",
          "type": "address"
        },
        {
          "indexed": false,
          "internalType": "uint256",
          "name": "amount",
          "type": "uint256"
        }
      ],
      "name": "Approval",
      "type": "event"
    },
    {
      "anonymous": false,
      "inputs": [
        {
          "indexed": true,
          "internalType": "address",
          "name": "from",
          "type": "address"
        },
        {
          "indexed": true,
          "internalType": "address",
          "name": "to",
          "type": "address"
        },
        {
          "indexed": false,
          "internalType": "uint256",
          "name": "amount",
          "type": "uint256"
        }
      ],
      "name": "Transfer",
      "type": "event"
    },
    {
      "anonymous": false,
      "inputs": [
        {
          "indexed": true,
          "internalType": "address",
          "name": "spender",
          "type": "address"
        },
        {
          "indexed": true,
          "internalType": "address",
          "name": "from",
          "type": "address"
        },
        {
          "indexed": true,
          "internalType": "address",
          "name": "to",
          "type": "address"
        },
        {
          "indexed": false,
          "internalType": "uint256",
          "name": "amount",
          "type": "uint256"
        }
      ],
      "name": "Transfer",
      "type": "event"
    },
    {
      "inputs": [
        {
          "internalType": "address",
          "name": "",
          "type": "address"
        },
        {
          "internalType": "address",
          "name": "",
          "type": "address"
        }
      ],
      "name": "_allowances",
      "outputs": [
        {
          "internalType": "uint256",
          "name": "",
          "type": "uint256"
        }
      ],
      "stateMutability": "view",
      "type": "function",
      "constant": true
    },
    {
      "inputs": [],
      "name": "_decimals",
      "outputs": [
        {
          "internalType": "uint8",
          "name": "",
          "type": "uint8"
        }
      ],
      "stateMutability": "view",
      "type": "function",
      "constant": true
    },
    {
      "inputs": [],
      "name": "_name",
      "outputs": [
        {
          "internalType": "string",
          "name": "",
          "type": "string"
        }
      ],
      "stateMutability": "view",
      "type": "function",
      "constant": true
    },
    {
      "inputs": [],
      "name": "_symbol",
      "outputs": [
        {
          "internalType": "string",
          "name": "",
          "type": "string"
        }
      ],
      "stateMutability": "view",
      "type": "function",
      "constant": true
    },
    {
      "inputs": [],
      "name": "_totalSupply",
      "outputs": [
        {
          "internalType": "uint256",
          "name": "",
          "type": "uint256"
        }
      ],
      "stateMutability": "view",
      "type": "function",
      "constant": true
    },
    {
      "inputs": [],
      "name": "name",
      "outputs": [
        {
          "internalType": "string",
          "name": "",
          "type": "string"
        }
      ],
      "stateMutability": "view",
      "type": "function",
      "constant": true
    },
    {
      "inputs": [],
      "name": "symbol",
      "outputs": [
        {
          "internalType": "string",
          "name": "",
          "type": "string"
        }
      ],
      "stateMutability": "view",
      "type": "function",
      "constant": true
    },
    {
      "inputs": [],
      "name": "decimals",
      "outputs": [
        {
          "internalType": "uint8",
          "name": "",
          "type": "uint8"
        }
      ],
      "stateMutability": "view",
      "type": "function",
      "constant": true
    },
    {
      "inputs": [],
      "name": "totalSupply",
      "outputs": [
        {
          "internalType": "uint256",
          "name": "",
          "type": "uint256"
        }
      ],
      "stateMutability": "view",
      "type": "function",
      "constant": true
    },
    {
      "inputs": [
        {
          "internalType": "address",
          "name": "account",
          "type": "address"
        }
      ],
      "name": "balanceOf",
      "outputs": [
        {
          "internalType": "uint256",
          "name": "",
          "type": "uint256"
        }
      ],
      "stateMutability": "view",
      "type": "function",
      "constant": true
    },
    {
      "inputs": [
        {
          "internalType": "address",
          "name": "recipient",
          "type": "address"
        },
        {
          "internalType": "uint256",
          "name": "amount",
          "type": "uint256"
        }
      ],
      "name": "transfer",
      "outputs": [
        {
          "internalType": "bool",
          "name": "",
          "type": "bool"
        }
      ],
      "stateMutability": "nonpayable",
      "type": "function"
    },
    {
      "inputs": [
        {
          "internalType": "address",
          "name": "owner",
          "type": "address"
        },
        {
          "internalType": "address",
          "name": "spender",
          "type": "address"
        }
      ],
      "name": "allowance",
      "outputs": [
        {
          "internalType": "uint256",
          "name": "",
          "type": "uint256"
        }
      ],
      "stateMutability": "view",
      "type": "function",
      "constant": true
    },
    {
      "inputs": [
        {
          "internalType": "address",
          "name": "spender",
          "type": "address"
        },
        {
          "internalType": "uint256",
          "name": "amount",
          "type": "uint256"
        }
      ],
      "name": "approve",
      "outputs": [
        {
          "internalType": "bool",
          "name": "",
          "type": "bool"
        }
      ],
      "stateMutability": "nonpayable",
      "type": "function"
    },
    {
      "inputs": [
        {
          "internalType": "address",
          "name": "sender",
          "type": "address"
        },
        {
          "internalType": "address",
          "name": "recipient",
          "type": "address"
        },
        {
          "internalType": "uint256",
          "name": "amount",
          "type": "uint256"
        }
      ],
      "name": "transferFrom",
      "outputs": [
        {
          "internalType": "bool",
          "name": "",
          "type": "bool"
        }
      ],
      "stateMutability": "nonpayable",
      "type": "function"
    }
  ],
  "bytecode": "0x60806040523480156200001157600080fd5b50604051620017c9380380620017c9833981810160405281019062000037919062000206565b81600390805190602001906200004f929190620000e4565b50806004908051906020019062000068929190620000e4565b506012600560006101000a81548160ff021916908360ff1602179055506a52b7d2dcc80cd2e40000006002819055506002546000803373ffffffffffffffffffffffffffffffffffffffff1673ffffffffffffffffffffffffffffffffffffffff168152602001908152602001600020819055505050620003e9565b828054620000f2906200030e565b90600052602060002090601f01602090048101928262000116576000855562000162565b82601f106200013157805160ff191683800117855562000162565b8280016001018555821562000162579182015b828111156200016157825182559160200191906001019062000144565b5b50905062000171919062000175565b5090565b5b808211156200019057600081600090555060010162000176565b5090565b6000620001ab620001a584620002a2565b62000279565b905082815260208101848484011115620001c457600080fd5b620001d1848285620002d8565b509392505050565b600082601f830112620001eb57600080fd5b8151620001fd84826020860162000194565b91505092915050565b600080604083850312156200021a57600080fd5b600083015167ffffffffffffffff8111156200023557600080fd5b6200024385828601620001d9565b925050602083015167ffffffffffffffff8111156200026157600080fd5b6200026f85828601620001d9565b9150509250929050565b60006200028562000298565b905062000293828262000344565b919050565b6000604051905090565b600067ffffffffffffffff821115620002c057620002bf620003a9565b5b620002cb82620003d8565b9050602081019050919050565b60005b83811015620002f8578082015181840152602081019050620002db565b8381111562000308576000848401525b50505050565b600060028204905060018216806200032757607f821691505b602082108114156200033e576200033d6200037a565b5b50919050565b6200034f82620003d8565b810181811067ffffffffffffffff82111715620003715762000370620003a9565b5b80604052505050565b7f4e487b7100000000000000000000000000000000000000000000000000000000600052602260045260246000fd5b7f4e487b7100000000000000000000000000000000000000000000000000000000600052604160045260246000fd5b6000601f19601f8301169050919050565b6113d080620003f96000396000f3fe608060405234801561001057600080fd5b50600436106100ea5760003560e01c80633eaaf86b1161008c578063a9059cbb11610066578063a9059cbb14610263578063b09f126614610293578063d28d8852146102b1578063dd62ed3e146102cf576100ea565b80633eaaf86b146101f757806370a082311461021557806395d89b4114610245576100ea565b806318160ddd116100c857806318160ddd1461016d57806323b872dd1461018b578063313ce567146101bb57806332424aa3146101d9576100ea565b8063024c2ddd146100ef57806306fdde031461011f578063095ea7b31461013d575b600080fd5b61010960048036038101906101049190610c91565b6102ff565b6040516101169190610f8d565b60405180910390f35b610127610324565b6040516101349190610eab565b60405180910390f35b61015760048036038101906101529190610d1c565b6103b6565b6040516101649190610e90565b60405180910390f35b6101756103cd565b6040516101829190610f8d565b60405180910390f35b6101a560048036038101906101a09190610ccd565b6103d7565b6040516101b29190610e90565b60405180910390f35b6101c361053b565b6040516101d09190610fa8565b60405180910390f35b6101e1610552565b6040516101ee9190610fa8565b60405180910390f35b6101ff610565565b60405161020c9190610f8d565b60405180910390f35b61022f600480360381019061022a9190610c68565b61056b565b60405161023c9190610f8d565b60405180910390f35b61024d6105b3565b60405161025a9190610eab565b60405180910390f35b61027d60048036038101906102789190610d1c565b610645565b60405161028a9190610e90565b60405180910390f35b61029b6106c1565b6040516102a89190610eab565b60405180910390f35b6102b961074f565b6040516102c69190610eab565b60405180910390f35b6102e960048036038101906102e49190610c91565b6107dd565b6040516102f69190610f8d565b60405180910390f35b6001602052816000526040600020602052806000526040600020600091509150505481565b606060038054610333906110f1565b80601f016020809104026020016040519081016040528092919081815260200182805461035f906110f1565b80156103ac5780601f10610381576101008083540402835291602001916103ac565b820191906000526020600020905b81548152906001019060200180831161038f57829003601f168201915b5050505050905090565b60006103c3338484610864565b6001905092915050565b6000600254905090565b60006103e4848484610a2f565b8273ffffffffffffffffffffffffffffffffffffffff168473ffffffffffffffffffffffffffffffffffffffff163373ffffffffffffffffffffffffffffffffffffffff167fd1398bee19313d6bf672ccb116e51f4a1a947e91c757907f51fbb5b5e56c698f856040516104589190610f8d565b60405180910390a461046b848484610864565b6000600160008673ffffffffffffffffffffffffffffffffffffffff1673ffffffffffffffffffffffffffffffffffffffff16815260200190815260200160002060008573ffffffffffffffffffffffffffffffffffffffff1673ffffffffffffffffffffffffffffffffffffffff1681526020019081526020016000205490508281101561052f576040517f08c379a000000000000000000000000000000000000000000000000000000000815260040161052690610f2d565b60405180910390fd5b60019150509392505050565b6000600560009054906101000a900460ff16905090565b600560009054906101000a900460ff1681565b60025481565b60008060008373ffffffffffffffffffffffffffffffffffffffff1673ffffffffffffffffffffffffffffffffffffffff168152602001908152602001600020549050919050565b6060600480546105c2906110f1565b80601f01602080910402602001604051908101604052809291908181526020018280546105ee906110f1565b801561063b5780601f106106105761010080835404028352916020019161063b565b820191906000526020600020905b81548152906001019060200180831161061e57829003601f168201915b5050505050905090565b6000610652338484610a2f565b8273ffffffffffffffffffffffffffffffffffffffff163373ffffffffffffffffffffffffffffffffffffffff167fddf252ad1be2c89b69c2b068fc378daa952ba7f163c4a11628f55a4df523b3ef846040516106af9190610f8d565b60405180910390a36001905092915050565b600480546106ce906110f1565b80601f01602080910402602001604051908101604052809291908181526020018280546106fa906110f1565b80156107475780601f1061071c57610100808354040283529160200191610747565b820191906000526020600020905b81548152906001019060200180831161072a57829003601f168201915b505050505081565b6003805461075c906110f1565b80601f0160208091040260200160405190810160405280929190818152602001828054610788906110f1565b80156107d55780601f106107aa576101008083540402835291602001916107d5565b820191906000526020600020905b8154815290600101906020018083116107b857829003601f168201915b505050505081565b6000600160008473ffffffffffffffffffffffffffffffffffffffff1673ffffffffffffffffffffffffffffffffffffffff16815260200190815260200160002060008373ffffffffffffffffffffffffffffffffffffffff1673ffffffffffffffffffffffffffffffffffffffff16815260200190815260200160002054905092915050565b600073ffffffffffffffffffffffffffffffffffffffff168373ffffffffffffffffffffffffffffffffffffffff1614156108d4576040517f08c379a00000000000000000000000000000000000000000000000000000000081526004016108cb90610f6d565b60405180910390fd5b600073ffffffffffffffffffffffffffffffffffffffff168273ffffffffffffffffffffffffffffffffffffffff161415610944576040517f08c379a000000000000000000000000000000000000000000000000000000000815260040161093b90610eed565b60405180910390fd5b80600160008573ffffffffffffffffffffffffffffffffffffffff1673ffffffffffffffffffffffffffffffffffffffff16815260200190815260200160002060008473ffffffffffffffffffffffffffffffffffffffff1673ffffffffffffffffffffffffffffffffffffffff168152602001908152602001600020819055508173ffffffffffffffffffffffffffffffffffffffff168373ffffffffffffffffffffffffffffffffffffffff167f8c5be1e5ebec7d5bd14f71427d1e84f3dd0314c0f7b2291e5b200ac8c7c3b92583604051610a229190610f8d565b60405180910390a3505050565b600073ffffffffffffffffffffffffffffffffffffffff168373ffffffffffffffffffffffffffffffffffffffff161415610a9f576040517f08c379a0000000000000000000000000000000000000000000000000000000008152600401610a9690610f4d565b60405180910390fd5b600073ffffffffffffffffffffffffffffffffffffffff168273ffffffffffffffffffffffffffffffffffffffff161415610b0f576040517f08c379a0000000000000000000000000000000000000000000000000000000008152600401610b0690610ecd565b60405180910390fd5b60008060008573ffffffffffffffffffffffffffffffffffffffff1673ffffffffffffffffffffffffffffffffffffffff16815260200190815260200160002054905081811015610b95576040517f08c379a0000000000000000000000000000000000000000000000000000000008152600401610b8c90610f0d565b60405180910390fd5b8181610ba19190611035565b6000808673ffffffffffffffffffffffffffffffffffffffff1673ffffffffffffffffffffffffffffffffffffffff16815260200190815260200160002081905550816000808573ffffffffffffffffffffffffffffffffffffffff1673ffffffffffffffffffffffffffffffffffffffff1681526020019081526020016000206000828254610c319190610fdf565b9250508190555050505050565b600081359050610c4d8161136c565b92915050565b600081359050610c6281611383565b92915050565b600060208284031215610c7a57600080fd5b6000610c8884828501610c3e565b91505092915050565b60008060408385031215610ca457600080fd5b6000610cb285828601610c3e565b9250506020610cc385828601610c3e565b9150509250929050565b600080600060608486031215610ce257600080fd5b6000610cf086828701610c3e565b9350506020610d0186828701610c3e565b9250506040610d1286828701610c53565b9150509250925092565b60008060408385031215610d2f57600080fd5b6000610d3d85828601610c3e565b9250506020610d4e85828601610c53565b9150509250929050565b610d618161107b565b82525050565b6000610d7282610fc3565b610d7c8185610fce565b9350610d8c8185602086016110be565b610d9581611181565b840191505092915050565b6000610dad602383610fce565b9150610db882611192565b604082019050919050565b6000610dd0602283610fce565b9150610ddb826111e1565b604082019050919050565b6000610df3602683610fce565b9150610dfe82611230565b604082019050919050565b6000610e16602883610fce565b9150610e218261127f565b604082019050919050565b6000610e39602583610fce565b9150610e44826112ce565b604082019050919050565b6000610e5c602483610fce565b9150610e678261131d565b604082019050919050565b610e7b816110a7565b82525050565b610e8a816110b1565b82525050565b6000602082019050610ea56000830184610d58565b92915050565b60006020820190508181036000830152610ec58184610d67565b905092915050565b60006020820190508181036000830152610ee681610da0565b9050919050565b60006020820190508181036000830152610f0681610dc3565b9050919050565b60006020820190508181036000830152610f2681610de6565b9050919050565b60006020820190508181036000830152610f4681610e09565b9050919050565b60006020820190508181036000830152610f6681610e2c565b9050919050565b60006020820190508181036000830152610f8681610e4f565b9050919050565b6000602082019050610fa26000830184610e72565b92915050565b6000602082019050610fbd6000830184610e81565b92915050565b600081519050919050565b600082825260208201905092915050565b6000610fea826110a7565b9150610ff5836110a7565b9250827fffffffffffffffffffffffffffffffffffffffffffffffffffffffffffffffff0382111561102a57611029611123565b5b828201905092915050565b6000611040826110a7565b915061104b836110a7565b92508282101561105e5761105d611123565b5b828203905092915050565b600061107482611087565b9050919050565b60008115159050919050565b600073ffffffffffffffffffffffffffffffffffffffff82169050919050565b6000819050919050565b600060ff82169050919050565b60005b838110156110dc5780820151818401526020810190506110c1565b838111156110eb576000848401525b50505050565b6000600282049050600182168061110957607f821691505b6020821081141561111d5761111c611152565b5b50919050565b7f4e487b7100000000000000000000000000000000000000000000000000000000600052601160045260246000fd5b7f4e487b7100000000000000000000000000000000000000000000000000000000600052602260045260246000fd5b6000601f19601f8301169050919050565b7f45524332303a207472616e7366657220746f20746865207a65726f206164647260008201527f6573730000000000000000000000000000000000000000000000000000000000602082015250565b7f45524332303a20617070726f766520746f20746865207a65726f20616464726560008201527f7373000000000000000000000000000000000000000000000000000000000000602082015250565b7f45524332303a207472616e7366657220616d6f756e742065786365656473206260008201527f616c616e63650000000000000000000000000000000000000000000000000000602082015250565b7f45524332303a207472616e7366657220616d6f756e742065786365656473206160008201527f6c6c6f77616e6365000000000000000000000000000000000000000000000000602082015250565b7f45524332303a207472616e736665722066726f6d20746865207a65726f20616460008201527f6472657373000000000000000000000000000000000000000000000000000000602082015250565b7f45524332303a20617070726f76652066726f6d20746865207a65726f2061646460008201527f7265737300000000000000000000000000000000000000000000000000000000602082015250565b61137581611069565b811461138057600080fd5b50565b61138c816110a7565b811461139757600080fd5b5056fea2646970667358221220e3f12dbd8912d5cee674f98e40cd7704d85f5ac4b63a8c8ec593ccadf841e02d64736f6c63430008010033",
  "immutableReferences": {},
  "source": "pragma solidity ^0.8.1;\n\ninterface ERC20Interface {\n    function totalSupply() external view returns (uint256);\n    function balanceOf(address account) external view returns (uint256);\n    function transfer(address recipient, uint256 amount) external returns (bool);\n    function approve(address spender, uint256 amount) external returns (bool);\n    function allowance(address owner, address spender) external view returns (uint256);\n    function transferFrom(address spender, address recipient, uint256 amount) external returns (bool);\n    \n    event Transfer(address indexed from, address indexed to, uint256 amount);\n    event Transfer(address indexed spender, address indexed from, address indexed to, uint256 amount);\n    event Approval(address indexed owner, address indexed spender, uint256 amount);\n}\n\ncontract ERC20 is ERC20Interface {\n    mapping (address => uint256) private _balances;\n    mapping (address => mapping (address => uint256)) public _allowances;\n\n    uint256 public _totalSupply;\n    string public _name;\n    string public _symbol;\n    uint8 public _decimals;\n    \n    constructor(string memory getName, string memory getSymbol) {\n        _name = getName;\n        _symbol = getSymbol;\n        _decimals = 18;\n        _totalSupply = 100000000e18;\n        _balances[msg.sender] = _totalSupply;\n    }\n    \n    function name() public view returns (string memory) {\n        return _name;\n    }\n    \n    function symbol() public view returns (string memory) {\n        return _symbol;\n    }\n    \n    function decimals() public view returns (uint8) {\n        return _decimals;\n    }\n    // ERC20   \n    function totalSupply() external view virtual override returns (uint256) {\n        return _totalSupply;\n    }\n    // Owner   \n    function balanceOf(address account) external view virtual override returns (uint256) {\n        return _balances[account];\n    }\n    // ERC20 \n    function transfer(address recipient, uint amount) public virtual override returns (bool) {\n        _transfer(msg.sender, recipient, amount);\n        emit Transfer(msg.sender, recipient, amount);\n        return true;\n    }\n    // \n    // owner spender     \n    function allowance(address owner, address spender) external view override returns (uint256) {\n        return _allowances[owner][spender];\n    }\n    // spender  value     . \n    //   Approval    .\n    function approve(address spender, uint amount) external virtual override returns (bool) {\n        _approve(msg.sender, spender, amount);\n        return true;\n    }\n    // spender      \n    function transferFrom(address sender, address recipient, uint256 amount) external virtual override returns (bool) {\n        _transfer(sender, recipient, amount);\n        emit Transfer(msg.sender, sender, recipient, amount);\n        _approve(sender, recipient, amount);\n        uint256 currentAllowance = _allowances[sender][recipient];\n        require(currentAllowance >= amount, \"ERC20: transfer amount exceeds allowance\");\n        return true;\n    }\n    \n    function _transfer(address sender, address recipient, uint256 amount) internal virtual {\n        require(sender != address(0), \"ERC20: transfer from the zero address\");\n        require(recipient != address(0), \"ERC20: transfer to the zero address\");\n        uint256 senderBalance = _balances[sender];\n        require(senderBalance >= amount, \"ERC20: transfer amount exceeds balance\");\n        _balances[sender] = senderBalance - amount;\n        _balances[recipient] += amount;\n    }\n    \n    function _approve(address owner, address spender, uint256 amount) internal virtual {\n        require(owner != address(0), \"ERC20: approve from the zero address\");\n        require(spender != address(0), \"ERC20: approve to the zero address\");\n        _allowances[owner][spender] = amount;\n        emit Approval(owner, spender, amount);\n    }\n}",
  "sourcePath": "/Users/chaewonyoo/Desktop/beb-09-final-GYE-dev/contract/contracts/ERC20.sol",
  "compiler": {
    "name": "solc",
    "version": "0.8.1+commit.df193b15.Emscripten.clang"
  },
  "schemaVersion": "3.4.15",
  "updatedAt": "2023-08-10T14:07:38.347Z",
  "networkType": "ethereum",
  "devdoc": {
    "kind": "dev",
    "methods": {},
    "version": 1
  },
  "userdoc": {
    "kind": "user",
    "methods": {},
    "version": 1
  }
}